{
  "_format": "hh-sol-artifact-1",
  "contractName": "NftMarket",
  "sourceName": "contracts/NftMarket.sol",
  "abi": [
    {
      "inputs": [],
      "stateMutability": "nonpayable",
      "type": "constructor"
    },
    {
      "anonymous": false,
      "inputs": [
        {
          "indexed": true,
          "internalType": "address",
          "name": "owner",
          "type": "address"
        },
        {
          "indexed": true,
          "internalType": "address",
          "name": "approved",
          "type": "address"
        },
        {
          "indexed": true,
          "internalType": "uint256",
          "name": "tokenId",
          "type": "uint256"
        }
      ],
      "name": "Approval",
      "type": "event"
    },
    {
      "anonymous": false,
      "inputs": [
        {
          "indexed": true,
          "internalType": "address",
          "name": "owner",
          "type": "address"
        },
        {
          "indexed": true,
          "internalType": "address",
          "name": "operator",
          "type": "address"
        },
        {
          "indexed": false,
          "internalType": "bool",
          "name": "approved",
          "type": "bool"
        }
      ],
      "name": "ApprovalForAll",
      "type": "event"
    },
    {
      "anonymous": false,
      "inputs": [
        {
          "indexed": false,
          "internalType": "uint256",
          "name": "_fromTokenId",
          "type": "uint256"
        },
        {
          "indexed": false,
          "internalType": "uint256",
          "name": "_toTokenId",
          "type": "uint256"
        }
      ],
      "name": "BatchMetadataUpdate",
      "type": "event"
    },
    {
      "anonymous": false,
      "inputs": [
        {
          "indexed": false,
          "internalType": "uint256",
          "name": "_tokenId",
          "type": "uint256"
        }
      ],
      "name": "MetadataUpdate",
      "type": "event"
    },
    {
      "anonymous": false,
      "inputs": [
        {
          "indexed": false,
          "internalType": "uint256",
          "name": "tokenId",
          "type": "uint256"
        },
        {
          "indexed": false,
          "internalType": "uint256",
          "name": "price",
          "type": "uint256"
        },
        {
          "indexed": false,
          "internalType": "address",
          "name": "creator",
          "type": "address"
        },
        {
          "indexed": false,
          "internalType": "bool",
          "name": "isListed",
          "type": "bool"
        }
      ],
      "name": "NftItemCreated",
      "type": "event"
    },
    {
      "anonymous": false,
      "inputs": [
        {
          "indexed": true,
          "internalType": "address",
          "name": "previousOwner",
          "type": "address"
        },
        {
          "indexed": true,
          "internalType": "address",
          "name": "newOwner",
          "type": "address"
        }
      ],
      "name": "OwnershipTransferred",
      "type": "event"
    },
    {
      "anonymous": false,
      "inputs": [
        {
          "indexed": true,
          "internalType": "address",
          "name": "from",
          "type": "address"
        },
        {
          "indexed": true,
          "internalType": "address",
          "name": "to",
          "type": "address"
        },
        {
          "indexed": true,
          "internalType": "uint256",
          "name": "tokenId",
          "type": "uint256"
        }
      ],
      "name": "Transfer",
      "type": "event"
    },
    {
      "inputs": [
        {
          "internalType": "address",
          "name": "to",
          "type": "address"
        },
        {
          "internalType": "uint256",
          "name": "tokenId",
          "type": "uint256"
        }
      ],
      "name": "approve",
      "outputs": [],
      "stateMutability": "nonpayable",
      "type": "function"
    },
    {
      "inputs": [
        {
          "internalType": "address",
          "name": "owner",
          "type": "address"
        }
      ],
      "name": "balanceOf",
      "outputs": [
        {
          "internalType": "uint256",
          "name": "",
          "type": "uint256"
        }
      ],
      "stateMutability": "view",
      "type": "function"
    },
    {
      "inputs": [
        {
          "internalType": "uint256",
          "name": "tokenId",
          "type": "uint256"
        }
      ],
      "name": "buyNft",
      "outputs": [],
      "stateMutability": "payable",
      "type": "function"
    },
    {
      "inputs": [],
      "name": "getAllNftsOnSale",
      "outputs": [
        {
          "components": [
            {
              "internalType": "uint256",
              "name": "tokenId",
              "type": "uint256"
            },
            {
              "internalType": "uint256",
              "name": "price",
              "type": "uint256"
            },
            {
              "internalType": "address",
              "name": "creator",
              "type": "address"
            },
            {
              "internalType": "bool",
              "name": "isListed",
              "type": "bool"
            }
          ],
          "internalType": "struct NftMarket.NftItem[]",
          "name": "",
          "type": "tuple[]"
        }
      ],
      "stateMutability": "view",
      "type": "function"
    },
    {
      "inputs": [
        {
          "internalType": "uint256",
          "name": "tokenId",
          "type": "uint256"
        }
      ],
      "name": "getApproved",
      "outputs": [
        {
          "internalType": "address",
          "name": "",
          "type": "address"
        }
      ],
      "stateMutability": "view",
      "type": "function"
    },
    {
      "inputs": [
        {
          "internalType": "uint256",
          "name": "tokenId",
          "type": "uint256"
        }
      ],
      "name": "getNftItem",
      "outputs": [
        {
          "components": [
            {
              "internalType": "uint256",
              "name": "tokenId",
              "type": "uint256"
            },
            {
              "internalType": "uint256",
              "name": "price",
              "type": "uint256"
            },
            {
              "internalType": "address",
              "name": "creator",
              "type": "address"
            },
            {
              "internalType": "bool",
              "name": "isListed",
              "type": "bool"
            }
          ],
          "internalType": "struct NftMarket.NftItem",
          "name": "",
          "type": "tuple"
        }
      ],
      "stateMutability": "view",
      "type": "function"
    },
    {
      "inputs": [],
      "name": "getOwnedNfts",
      "outputs": [
        {
          "components": [
            {
              "internalType": "uint256",
              "name": "tokenId",
              "type": "uint256"
            },
            {
              "internalType": "uint256",
              "name": "price",
              "type": "uint256"
            },
            {
              "internalType": "address",
              "name": "creator",
              "type": "address"
            },
            {
              "internalType": "bool",
              "name": "isListed",
              "type": "bool"
            }
          ],
          "internalType": "struct NftMarket.NftItem[]",
          "name": "",
          "type": "tuple[]"
        }
      ],
      "stateMutability": "view",
      "type": "function"
    },
    {
      "inputs": [
        {
          "internalType": "address",
          "name": "owner",
          "type": "address"
        },
        {
          "internalType": "address",
          "name": "operator",
          "type": "address"
        }
      ],
      "name": "isApprovedForAll",
      "outputs": [
        {
          "internalType": "bool",
          "name": "",
          "type": "bool"
        }
      ],
      "stateMutability": "view",
      "type": "function"
    },
    {
      "inputs": [],
      "name": "listedItemsCount",
      "outputs": [
        {
          "internalType": "uint256",
          "name": "",
          "type": "uint256"
        }
      ],
      "stateMutability": "view",
      "type": "function"
    },
    {
      "inputs": [],
      "name": "listingPrice",
      "outputs": [
        {
          "internalType": "uint256",
          "name": "",
          "type": "uint256"
        }
      ],
      "stateMutability": "view",
      "type": "function"
    },
    {
      "inputs": [
        {
          "internalType": "string",
          "name": "tokenURI",
          "type": "string"
        },
        {
          "internalType": "uint256",
          "name": "price",
          "type": "uint256"
        }
      ],
      "name": "mintToken",
      "outputs": [
        {
          "internalType": "uint256",
          "name": "",
          "type": "uint256"
        }
      ],
      "stateMutability": "payable",
      "type": "function"
    },
    {
      "inputs": [],
      "name": "name",
      "outputs": [
        {
          "internalType": "string",
          "name": "",
          "type": "string"
        }
      ],
      "stateMutability": "view",
      "type": "function"
    },
    {
      "inputs": [],
      "name": "owner",
      "outputs": [
        {
          "internalType": "address",
          "name": "",
          "type": "address"
        }
      ],
      "stateMutability": "view",
      "type": "function"
    },
    {
      "inputs": [
        {
          "internalType": "uint256",
          "name": "tokenId",
          "type": "uint256"
        }
      ],
      "name": "ownerOf",
      "outputs": [
        {
          "internalType": "address",
          "name": "",
          "type": "address"
        }
      ],
      "stateMutability": "view",
      "type": "function"
    },
    {
      "inputs": [
        {
          "internalType": "uint256",
          "name": "tokenId",
          "type": "uint256"
        },
        {
          "internalType": "uint256",
          "name": "newPrice",
          "type": "uint256"
        }
      ],
      "name": "placeNftOnSale",
      "outputs": [],
      "stateMutability": "payable",
      "type": "function"
    },
    {
      "inputs": [],
      "name": "renounceOwnership",
      "outputs": [],
      "stateMutability": "nonpayable",
      "type": "function"
    },
    {
      "inputs": [
        {
          "internalType": "address",
          "name": "from",
          "type": "address"
        },
        {
          "internalType": "address",
          "name": "to",
          "type": "address"
        },
        {
          "internalType": "uint256",
          "name": "tokenId",
          "type": "uint256"
        }
      ],
      "name": "safeTransferFrom",
      "outputs": [],
      "stateMutability": "nonpayable",
      "type": "function"
    },
    {
      "inputs": [
        {
          "internalType": "address",
          "name": "from",
          "type": "address"
        },
        {
          "internalType": "address",
          "name": "to",
          "type": "address"
        },
        {
          "internalType": "uint256",
          "name": "tokenId",
          "type": "uint256"
        },
        {
          "internalType": "bytes",
          "name": "data",
          "type": "bytes"
        }
      ],
      "name": "safeTransferFrom",
      "outputs": [],
      "stateMutability": "nonpayable",
      "type": "function"
    },
    {
      "inputs": [
        {
          "internalType": "address",
          "name": "operator",
          "type": "address"
        },
        {
          "internalType": "bool",
          "name": "approved",
          "type": "bool"
        }
      ],
      "name": "setApprovalForAll",
      "outputs": [],
      "stateMutability": "nonpayable",
      "type": "function"
    },
    {
      "inputs": [
        {
          "internalType": "uint256",
          "name": "newPrice",
          "type": "uint256"
        }
      ],
      "name": "setListingPrice",
      "outputs": [],
      "stateMutability": "nonpayable",
      "type": "function"
    },
    {
      "inputs": [
        {
          "internalType": "bytes4",
          "name": "interfaceId",
          "type": "bytes4"
        }
      ],
      "name": "supportsInterface",
      "outputs": [
        {
          "internalType": "bool",
          "name": "",
          "type": "bool"
        }
      ],
      "stateMutability": "view",
      "type": "function"
    },
    {
      "inputs": [],
      "name": "symbol",
      "outputs": [
        {
          "internalType": "string",
          "name": "",
          "type": "string"
        }
      ],
      "stateMutability": "view",
      "type": "function"
    },
    {
      "inputs": [
        {
          "internalType": "uint256",
          "name": "index",
          "type": "uint256"
        }
      ],
      "name": "tokenByIndex",
      "outputs": [
        {
          "internalType": "uint256",
          "name": "",
          "type": "uint256"
        }
      ],
      "stateMutability": "view",
      "type": "function"
    },
    {
      "inputs": [
        {
          "internalType": "address",
          "name": "owner",
          "type": "address"
        },
        {
          "internalType": "uint256",
          "name": "index",
          "type": "uint256"
        }
      ],
      "name": "tokenOfOwnerByIndex",
      "outputs": [
        {
          "internalType": "uint256",
          "name": "",
          "type": "uint256"
        }
      ],
      "stateMutability": "view",
      "type": "function"
    },
    {
      "inputs": [
        {
          "internalType": "uint256",
          "name": "tokenId",
          "type": "uint256"
        }
      ],
      "name": "tokenURI",
      "outputs": [
        {
          "internalType": "string",
          "name": "",
          "type": "string"
        }
      ],
      "stateMutability": "view",
      "type": "function"
    },
    {
      "inputs": [
        {
          "internalType": "string",
          "name": "tokenURI",
          "type": "string"
        }
      ],
      "name": "tokenURIExists",
      "outputs": [
        {
          "internalType": "bool",
          "name": "",
          "type": "bool"
        }
      ],
      "stateMutability": "view",
      "type": "function"
    },
    {
      "inputs": [],
      "name": "totalSupply",
      "outputs": [
        {
          "internalType": "uint256",
          "name": "",
          "type": "uint256"
        }
      ],
      "stateMutability": "view",
      "type": "function"
    },
    {
      "inputs": [
        {
          "internalType": "address",
          "name": "from",
          "type": "address"
        },
        {
          "internalType": "address",
          "name": "to",
          "type": "address"
        },
        {
          "internalType": "uint256",
          "name": "tokenId",
          "type": "uint256"
        }
      ],
      "name": "transferFrom",
      "outputs": [],
      "stateMutability": "nonpayable",
      "type": "function"
    },
    {
      "inputs": [
        {
          "internalType": "address",
          "name": "newOwner",
          "type": "address"
        }
      ],
      "name": "transferOwnership",
      "outputs": [],
      "stateMutability": "nonpayable",
      "type": "function"
    }
  ],
  "bytecode": "0x60806040526658d15e176280006008553480156200001c57600080fd5b506040518060400160405280600c81526020017f4372656174757265734e465400000000000000000000000000000000000000008152506040518060400160405280600481526020017f434e46540000000000000000000000000000000000000000000000000000000081525081600090816200009a91906200041d565b508060019081620000ac91906200041d565b505050620000cf620000c3620000d560201b60201c565b620000dd60201b60201c565b62000504565b600033905090565b6000600760009054906101000a900473ffffffffffffffffffffffffffffffffffffffff16905081600760006101000a81548173ffffffffffffffffffffffffffffffffffffffff021916908373ffffffffffffffffffffffffffffffffffffffff1602179055508173ffffffffffffffffffffffffffffffffffffffff168173ffffffffffffffffffffffffffffffffffffffff167f8be0079c531659141344cd1fd0a4f28419497f9722a3daafe3b4186f6b6457e060405160405180910390a35050565b600081519050919050565b7f4e487b7100000000000000000000000000000000000000000000000000000000600052604160045260246000fd5b7f4e487b7100000000000000000000000000000000000000000000000000000000600052602260045260246000fd5b600060028204905060018216806200022557607f821691505b6020821081036200023b576200023a620001dd565b5b50919050565b60008190508160005260206000209050919050565b60006020601f8301049050919050565b600082821b905092915050565b600060088302620002a57fffffffffffffffffffffffffffffffffffffffffffffffffffffffffffffffff8262000266565b620002b1868362000266565b95508019841693508086168417925050509392505050565b6000819050919050565b6000819050919050565b6000620002fe620002f8620002f284620002c9565b620002d3565b620002c9565b9050919050565b6000819050919050565b6200031a83620002dd565b62000332620003298262000305565b84845462000273565b825550505050565b600090565b620003496200033a565b620003568184846200030f565b505050565b5b818110156200037e57620003726000826200033f565b6001810190506200035c565b5050565b601f821115620003cd57620003978162000241565b620003a28462000256565b81016020851015620003b2578190505b620003ca620003c18562000256565b8301826200035b565b50505b505050565b600082821c905092915050565b6000620003f260001984600802620003d2565b1980831691505092915050565b60006200040d8383620003df565b9150826002028217905092915050565b6200042882620001a3565b67ffffffffffffffff811115620004445762000443620001ae565b5b6200045082546200020c565b6200045d82828562000382565b600060209050601f83116001811462000495576000841562000480578287015190505b6200048c8582620003ff565b865550620004fc565b601f198416620004a58662000241565b60005b82811015620004cf57848901518255600182019150602085019450602081019050620004a8565b86831015620004ef5784890151620004eb601f891682620003df565b8355505b6001600288020188555050505b505050505050565b61498980620005146000396000f3fe6080604052600436106101c25760003560e01c80636f1a0af5116100f7578063a22cb46511610095578063c87b56dd11610064578063c87b56dd14610651578063ccb4918d1461068e578063e985e9c5146106b9578063f2fde38b146106f6576101c2565b8063a22cb465146105a4578063b88d4fde146105cd578063c046372c146105f6578063c78f19f914610626576101c2565b8063715018a6116100d1578063715018a61461050e5780637c726b69146105255780638da5cb5b1461054e57806395d89b4114610579576101c2565b80636f1a0af51461046957806370a08231146104a657806370cbcb43146104e3576101c2565b8063243adbdd1161016457806342842e0e1161013e57806342842e0e1461038957806343d32ae7146103b25780634f6ccce7146103ef5780636352211e1461042c576101c2565b8063243adbdd146103055780632f745c591461032157806336b536be1461035e576101c2565b8063095ea7b3116101a0578063095ea7b31461026c57806318160ddd1461029557806321f422e5146102c057806323b872dd146102dc576101c2565b806301ffc9a7146101c757806306fdde0314610204578063081812fc1461022f575b600080fd5b3480156101d357600080fd5b506101ee60048036038101906101e99190612fa3565b61071f565b6040516101fb9190612feb565b60405180910390f35b34801561021057600080fd5b50610219610780565b6040516102269190613096565b60405180910390f35b34801561023b57600080fd5b50610256600480360381019061025191906130ee565b610812565b604051610263919061315c565b60405180910390f35b34801561027857600080fd5b50610293600480360381019061028e91906131a3565b610858565b005b3480156102a157600080fd5b506102aa61096f565b6040516102b791906131f2565b60405180910390f35b6102da60048036038101906102d5919061320d565b61097c565b005b3480156102e857600080fd5b5061030360048036038101906102fe919061324d565b610af8565b005b61031f600480360381019061031a91906130ee565b610b58565b005b34801561032d57600080fd5b50610348600480360381019061034391906131a3565b610cc0565b60405161035591906131f2565b60405180910390f35b34801561036a57600080fd5b50610373610d65565b60405161038091906133d1565b60405180910390f35b34801561039557600080fd5b506103b060048036038101906103ab919061324d565b610eff565b005b3480156103be57600080fd5b506103d960048036038101906103d49190613528565b610f1f565b6040516103e69190612feb565b60405180910390f35b3480156103fb57600080fd5b50610416600480360381019061041191906130ee565b610f5b565b60405161042391906131f2565b60405180910390f35b34801561043857600080fd5b50610453600480360381019061044e91906130ee565b610fcc565b604051610460919061315c565b60405180910390f35b34801561047557600080fd5b50610490600480360381019061048b91906130ee565b611052565b60405161049d91906135c6565b60405180910390f35b3480156104b257600080fd5b506104cd60048036038101906104c891906135e1565b611104565b6040516104da91906131f2565b60405180910390f35b3480156104ef57600080fd5b506104f86111bb565b60405161050591906133d1565b60405180910390f35b34801561051a57600080fd5b5061052361131f565b005b34801561053157600080fd5b5061054c600480360381019061054791906130ee565b611333565b005b34801561055a57600080fd5b50610563611388565b604051610570919061315c565b60405180910390f35b34801561058557600080fd5b5061058e6113b2565b60405161059b9190613096565b60405180910390f35b3480156105b057600080fd5b506105cb60048036038101906105c6919061363a565b611444565b005b3480156105d957600080fd5b506105f460048036038101906105ef919061371b565b61145a565b005b610610600480360381019061060b919061379e565b6114bc565b60405161061d91906131f2565b60405180910390f35b34801561063257600080fd5b5061063b6115cc565b60405161064891906131f2565b60405180910390f35b34801561065d57600080fd5b50610678600480360381019061067391906130ee565b6115d2565b6040516106859190613096565b60405180910390f35b34801561069a57600080fd5b506106a36116e4565b6040516106b091906131f2565b60405180910390f35b3480156106c557600080fd5b506106e060048036038101906106db91906137fa565b6116f5565b6040516106ed9190612feb565b60405180910390f35b34801561070257600080fd5b5061071d600480360381019061071891906135e1565b611789565b005b6000634906490660e01b7bffffffffffffffffffffffffffffffffffffffffffffffffffffffff1916827bffffffffffffffffffffffffffffffffffffffffffffffffffffffff1916148061077957506107788261180c565b5b9050919050565b60606000805461078f90613869565b80601f01602080910402602001604051908101604052809291908181526020018280546107bb90613869565b80156108085780601f106107dd57610100808354040283529160200191610808565b820191906000526020600020905b8154815290600101906020018083116107eb57829003601f168201915b5050505050905090565b600061081d826118ee565b6004600083815260200190815260200160002060009054906101000a900473ffffffffffffffffffffffffffffffffffffffff169050919050565b600061086382610fcc565b90508073ffffffffffffffffffffffffffffffffffffffff168373ffffffffffffffffffffffffffffffffffffffff16036108d3576040517f08c379a00000000000000000000000000000000000000000000000000000000081526004016108ca9061390c565b60405180910390fd5b8073ffffffffffffffffffffffffffffffffffffffff166108f2611939565b73ffffffffffffffffffffffffffffffffffffffff16148061092157506109208161091b611939565b6116f5565b5b610960576040517f08c379a00000000000000000000000000000000000000000000000000000000081526004016109579061399e565b60405180910390fd5b61096a8383611941565b505050565b6000600f80549050905090565b3373ffffffffffffffffffffffffffffffffffffffff1661099c83610fcc565b73ffffffffffffffffffffffffffffffffffffffff16146109f2576040517f08c379a00000000000000000000000000000000000000000000000000000000081526004016109e990613a0a565b60405180910390fd5b60001515600c600084815260200190815260200160002060020160149054906101000a900460ff16151514610a5c576040517f08c379a0000000000000000000000000000000000000000000000000000000008152600401610a5390613a76565b60405180910390fd5b6008543414610aa0576040517f08c379a0000000000000000000000000000000000000000000000000000000008152600401610a9790613b08565b60405180910390fd5b6001600c600084815260200190815260200160002060020160146101000a81548160ff02191690831515021790555080600c600084815260200190815260200160002060010181905550610af460096119fa565b5050565b610b09610b03611939565b82611a10565b610b48576040517f08c379a0000000000000000000000000000000000000000000000000000000008152600401610b3f90613b9a565b60405180910390fd5b610b53838383611aa5565b505050565b6000600c60008381526020019081526020016000206001015490506000610b7e83610fcc565b90508073ffffffffffffffffffffffffffffffffffffffff163373ffffffffffffffffffffffffffffffffffffffff1603610bee576040517f08c379a0000000000000000000000000000000000000000000000000000000008152600401610be590613c06565b60405180910390fd5b813414610c30576040517f08c379a0000000000000000000000000000000000000000000000000000000008152600401610c2790613c72565b60405180910390fd5b6000600c600085815260200190815260200160002060020160146101000a81548160ff021916908315150217905550610c696009611d9e565b610c74813385611aa5565b8073ffffffffffffffffffffffffffffffffffffffff166108fc349081150290604051600060405180830381858888f19350505050158015610cba573d6000803e3d6000fd5b50505050565b6000610ccb83611104565b8210610d0c576040517f08c379a0000000000000000000000000000000000000000000000000000000008152600401610d0390613cde565b60405180910390fd5b600d60008473ffffffffffffffffffffffffffffffffffffffff1673ffffffffffffffffffffffffffffffffffffffff168152602001908152602001600020600083815260200190815260200160002054905092915050565b60606000610d7161096f565b9050600080610d806009611dfa565b67ffffffffffffffff811115610d9957610d986133fd565b5b604051908082528060200260200182016040528015610dd257816020015b610dbf612ef7565b815260200190600190039081610db75790505b50905060005b83811015610ef5576000610deb82610f5b565b90506000600c60008381526020019081526020016000209050600115158160020160149054906101000a900460ff16151503610ee0578060405180608001604052908160008201548152602001600182015481526020016002820160009054906101000a900473ffffffffffffffffffffffffffffffffffffffff1673ffffffffffffffffffffffffffffffffffffffff1673ffffffffffffffffffffffffffffffffffffffff1681526020016002820160149054906101000a900460ff161515151581525050848681518110610ec557610ec4613cfe565b5b6020026020010181905250600185610edd9190613d5c565b94505b50508080610eed90613d90565b915050610dd8565b5080935050505090565b610f1a8383836040518060200160405280600081525061145a565b505050565b600060011515600b83604051610f359190613e14565b908152602001604051809103902060009054906101000a900460ff161515149050919050565b6000610f6561096f565b8210610fa6576040517f08c379a0000000000000000000000000000000000000000000000000000000008152600401610f9d90613cde565b60405180910390fd5b600f8281548110610fba57610fb9613cfe565b5b90600052602060002001549050919050565b600080610fd883611e08565b9050600073ffffffffffffffffffffffffffffffffffffffff168173ffffffffffffffffffffffffffffffffffffffff1603611049576040517f08c379a000000000000000000000000000000000000000000000000000000000815260040161104090613e77565b60405180910390fd5b80915050919050565b61105a612ef7565b600c600083815260200190815260200160002060405180608001604052908160008201548152602001600182015481526020016002820160009054906101000a900473ffffffffffffffffffffffffffffffffffffffff1673ffffffffffffffffffffffffffffffffffffffff1673ffffffffffffffffffffffffffffffffffffffff1681526020016002820160149054906101000a900460ff1615151515815250509050919050565b60008073ffffffffffffffffffffffffffffffffffffffff168273ffffffffffffffffffffffffffffffffffffffff1603611174576040517f08c379a000000000000000000000000000000000000000000000000000000000815260040161116b90613f09565b60405180910390fd5b600360008373ffffffffffffffffffffffffffffffffffffffff1673ffffffffffffffffffffffffffffffffffffffff168152602001908152602001600020549050919050565b606060006111c833611104565b905060008167ffffffffffffffff8111156111e6576111e56133fd565b5b60405190808252806020026020018201604052801561121f57816020015b61120c612ef7565b8152602001906001900390816112045790505b50905060005b828110156113165760006112393383610cc0565b90506000600c600083815260200190815260200160002090508060405180608001604052908160008201548152602001600182015481526020016002820160009054906101000a900473ffffffffffffffffffffffffffffffffffffffff1673ffffffffffffffffffffffffffffffffffffffff1673ffffffffffffffffffffffffffffffffffffffff1681526020016002820160149054906101000a900460ff1615151515815250508484815181106112f6576112f5613cfe565b5b60200260200101819052505050808061130e90613d90565b915050611225565b50809250505090565b611327611e45565b6113316000611ec3565b565b61133b611e45565b6000811161137e576040517f08c379a000000000000000000000000000000000000000000000000000000000815260040161137590613f75565b60405180910390fd5b8060088190555050565b6000600760009054906101000a900473ffffffffffffffffffffffffffffffffffffffff16905090565b6060600180546113c190613869565b80601f01602080910402602001604051908101604052809291908181526020018280546113ed90613869565b801561143a5780601f1061140f5761010080835404028352916020019161143a565b820191906000526020600020905b81548152906001019060200180831161141d57829003601f168201915b5050505050905090565b61145661144f611939565b8383611f89565b5050565b61146b611465611939565b83611a10565b6114aa576040517f08c379a00000000000000000000000000000000000000000000000000000000081526004016114a190613b9a565b60405180910390fd5b6114b6848484846120f5565b50505050565b60006114c783610f1f565b15611507576040517f08c379a00000000000000000000000000000000000000000000000000000000081526004016114fe90613fe1565b60405180910390fd5b600854341461154b576040517f08c379a000000000000000000000000000000000000000000000000000000000815260040161154290613b08565b60405180910390fd5b611555600a6119fa565b61155f60096119fa565b600061156b600a611dfa565b90506115773382612151565b611581818561216f565b61158b8184612213565b6001600b8560405161159d9190613e14565b908152602001604051809103902060006101000a81548160ff0219169083151502179055508091505092915050565b60085481565b60606115dd826118ee565b60006006600084815260200190815260200160002080546115fd90613869565b80601f016020809104026020016040519081016040528092919081815260200182805461162990613869565b80156116765780601f1061164b57610100808354040283529160200191611676565b820191906000526020600020905b81548152906001019060200180831161165957829003601f168201915b505050505090506000611687612363565b9050600081510361169c5781925050506116df565b6000825111156116d15780826040516020016116b9929190614001565b604051602081830303815290604052925050506116df565b6116da8461237a565b925050505b919050565b60006116f06009611dfa565b905090565b6000600560008473ffffffffffffffffffffffffffffffffffffffff1673ffffffffffffffffffffffffffffffffffffffff16815260200190815260200160002060008373ffffffffffffffffffffffffffffffffffffffff1673ffffffffffffffffffffffffffffffffffffffff16815260200190815260200160002060009054906101000a900460ff16905092915050565b611791611e45565b600073ffffffffffffffffffffffffffffffffffffffff168173ffffffffffffffffffffffffffffffffffffffff1603611800576040517f08c379a00000000000000000000000000000000000000000000000000000000081526004016117f790614097565b60405180910390fd5b61180981611ec3565b50565b60007f80ac58cd000000000000000000000000000000000000000000000000000000007bffffffffffffffffffffffffffffffffffffffffffffffffffffffff1916827bffffffffffffffffffffffffffffffffffffffffffffffffffffffff191614806118d757507f5b5e139f000000000000000000000000000000000000000000000000000000007bffffffffffffffffffffffffffffffffffffffffffffffffffffffff1916827bffffffffffffffffffffffffffffffffffffffffffffffffffffffff1916145b806118e757506118e6826123e2565b5b9050919050565b6118f78161244c565b611936576040517f08c379a000000000000000000000000000000000000000000000000000000000815260040161192d90613e77565b60405180910390fd5b50565b600033905090565b816004600083815260200190815260200160002060006101000a81548173ffffffffffffffffffffffffffffffffffffffff021916908373ffffffffffffffffffffffffffffffffffffffff160217905550808273ffffffffffffffffffffffffffffffffffffffff166119b483610fcc565b73ffffffffffffffffffffffffffffffffffffffff167f8c5be1e5ebec7d5bd14f71427d1e84f3dd0314c0f7b2291e5b200ac8c7c3b92560405160405180910390a45050565b6001816000016000828254019250508190555050565b600080611a1c83610fcc565b90508073ffffffffffffffffffffffffffffffffffffffff168473ffffffffffffffffffffffffffffffffffffffff161480611a5e5750611a5d81856116f5565b5b80611a9c57508373ffffffffffffffffffffffffffffffffffffffff16611a8484610812565b73ffffffffffffffffffffffffffffffffffffffff16145b91505092915050565b8273ffffffffffffffffffffffffffffffffffffffff16611ac582610fcc565b73ffffffffffffffffffffffffffffffffffffffff1614611b1b576040517f08c379a0000000000000000000000000000000000000000000000000000000008152600401611b1290614129565b60405180910390fd5b600073ffffffffffffffffffffffffffffffffffffffff168273ffffffffffffffffffffffffffffffffffffffff1603611b8a576040517f08c379a0000000000000000000000000000000000000000000000000000000008152600401611b81906141bb565b60405180910390fd5b611b97838383600161248d565b8273ffffffffffffffffffffffffffffffffffffffff16611bb782610fcc565b73ffffffffffffffffffffffffffffffffffffffff1614611c0d576040517f08c379a0000000000000000000000000000000000000000000000000000000008152600401611c0490614129565b60405180910390fd5b6004600082815260200190815260200160002060006101000a81549073ffffffffffffffffffffffffffffffffffffffff02191690556001600360008573ffffffffffffffffffffffffffffffffffffffff1673ffffffffffffffffffffffffffffffffffffffff168152602001908152602001600020600082825403925050819055506001600360008473ffffffffffffffffffffffffffffffffffffffff1673ffffffffffffffffffffffffffffffffffffffff16815260200190815260200160002060008282540192505081905550816002600083815260200190815260200160002060006101000a81548173ffffffffffffffffffffffffffffffffffffffff021916908373ffffffffffffffffffffffffffffffffffffffff160217905550808273ffffffffffffffffffffffffffffffffffffffff168473ffffffffffffffffffffffffffffffffffffffff167fddf252ad1be2c89b69c2b068fc378daa952ba7f163c4a11628f55a4df523b3ef60405160405180910390a4611d9983838360016125a2565b505050565b60008160000154905060008111611dea576040517f08c379a0000000000000000000000000000000000000000000000000000000008152600401611de190614227565b60405180910390fd5b6001810382600001819055505050565b600081600001549050919050565b60006002600083815260200190815260200160002060009054906101000a900473ffffffffffffffffffffffffffffffffffffffff169050919050565b611e4d611939565b73ffffffffffffffffffffffffffffffffffffffff16611e6b611388565b73ffffffffffffffffffffffffffffffffffffffff1614611ec1576040517f08c379a0000000000000000000000000000000000000000000000000000000008152600401611eb890614293565b60405180910390fd5b565b6000600760009054906101000a900473ffffffffffffffffffffffffffffffffffffffff16905081600760006101000a81548173ffffffffffffffffffffffffffffffffffffffff021916908373ffffffffffffffffffffffffffffffffffffffff1602179055508173ffffffffffffffffffffffffffffffffffffffff168173ffffffffffffffffffffffffffffffffffffffff167f8be0079c531659141344cd1fd0a4f28419497f9722a3daafe3b4186f6b6457e060405160405180910390a35050565b8173ffffffffffffffffffffffffffffffffffffffff168373ffffffffffffffffffffffffffffffffffffffff1603611ff7576040517f08c379a0000000000000000000000000000000000000000000000000000000008152600401611fee906142ff565b60405180910390fd5b80600560008573ffffffffffffffffffffffffffffffffffffffff1673ffffffffffffffffffffffffffffffffffffffff16815260200190815260200160002060008473ffffffffffffffffffffffffffffffffffffffff1673ffffffffffffffffffffffffffffffffffffffff16815260200190815260200160002060006101000a81548160ff0219169083151502179055508173ffffffffffffffffffffffffffffffffffffffff168373ffffffffffffffffffffffffffffffffffffffff167f17307eab39ab6107e8899845ad3d59bd9653f200f220920489ca2b5937696c31836040516120e89190612feb565b60405180910390a3505050565b612100848484611aa5565b61210c848484846125a8565b61214b576040517f08c379a000000000000000000000000000000000000000000000000000000000815260040161214290614391565b60405180910390fd5b50505050565b61216b82826040518060200160405280600081525061272f565b5050565b6121788261244c565b6121b7576040517f08c379a00000000000000000000000000000000000000000000000000000000081526004016121ae90614423565b60405180910390fd5b806006600084815260200190815260200160002090816121d791906145ef565b507ff8e1a15aba9398e019f0b49df1a4fde98ee17ae345cb5f6b5e2c27f5033e8ce78260405161220791906131f2565b60405180910390a15050565b60008111612256576040517f08c379a000000000000000000000000000000000000000000000000000000000815260040161224d90613f75565b60405180910390fd5b60405180608001604052808381526020018281526020013373ffffffffffffffffffffffffffffffffffffffff16815260200160011515815250600c6000848152602001908152602001600020600082015181600001556020820151816001015560408201518160020160006101000a81548173ffffffffffffffffffffffffffffffffffffffff021916908373ffffffffffffffffffffffffffffffffffffffff16021790555060608201518160020160146101000a81548160ff0219169083151502179055509050507f470031062672bc0246e132c723a729c4676710ec663a29e86c88678032daddea828233600160405161235794939291906146c1565b60405180910390a15050565b606060405180602001604052806000815250905090565b6060612385826118ee565b600061238f612363565b905060008151116123af57604051806020016040528060008152506123da565b806123b98461278a565b6040516020016123ca929190614001565b6040516020818303038152906040525b915050919050565b60007f01ffc9a7000000000000000000000000000000000000000000000000000000007bffffffffffffffffffffffffffffffffffffffffffffffffffffffff1916827bffffffffffffffffffffffffffffffffffffffffffffffffffffffff1916149050919050565b60008073ffffffffffffffffffffffffffffffffffffffff1661246e83611e08565b73ffffffffffffffffffffffffffffffffffffffff1614159050919050565b61249a8484846001612858565b600073ffffffffffffffffffffffffffffffffffffffff168473ffffffffffffffffffffffffffffffffffffffff16036124dc576124d78261285e565b61251b565b8273ffffffffffffffffffffffffffffffffffffffff168473ffffffffffffffffffffffffffffffffffffffff161461251a5761251984836128a7565b5b5b600073ffffffffffffffffffffffffffffffffffffffff168373ffffffffffffffffffffffffffffffffffffffff160361255d5761255882612a14565b61259c565b8373ffffffffffffffffffffffffffffffffffffffff168373ffffffffffffffffffffffffffffffffffffffff161461259b5761259a8383612ae5565b5b5b50505050565b50505050565b60006125c98473ffffffffffffffffffffffffffffffffffffffff16612b64565b15612722578373ffffffffffffffffffffffffffffffffffffffff1663150b7a026125f2611939565b8786866040518563ffffffff1660e01b8152600401612614949392919061475b565b6020604051808303816000875af192505050801561265057506040513d601f19601f8201168201806040525081019061264d91906147bc565b60015b6126d2573d8060008114612680576040519150601f19603f3d011682016040523d82523d6000602084013e612685565b606091505b5060008151036126ca576040517f08c379a00000000000000000000000000000000000000000000000000000000081526004016126c190614391565b60405180910390fd5b805181602001fd5b63150b7a0260e01b7bffffffffffffffffffffffffffffffffffffffffffffffffffffffff1916817bffffffffffffffffffffffffffffffffffffffffffffffffffffffff191614915050612727565b600190505b949350505050565b6127398383612b87565b61274660008484846125a8565b612785576040517f08c379a000000000000000000000000000000000000000000000000000000000815260040161277c90614391565b60405180910390fd5b505050565b60606000600161279984612da4565b01905060008167ffffffffffffffff8111156127b8576127b76133fd565b5b6040519080825280601f01601f1916602001820160405280156127ea5781602001600182028036833780820191505090505b509050600082602001820190505b60011561284d578080600190039150507f3031323334353637383961626364656600000000000000000000000000000000600a86061a8153600a8581612841576128406147e9565b5b049450600085036127f8575b819350505050919050565b50505050565b600f805490506010600083815260200190815260200160002081905550600f81908060018154018082558091505060019003906000526020600020016000909190919091505550565b600060016128b484611104565b6128be9190614818565b90506000600e60008481526020019081526020016000205490508181146129a3576000600d60008673ffffffffffffffffffffffffffffffffffffffff1673ffffffffffffffffffffffffffffffffffffffff168152602001908152602001600020600084815260200190815260200160002054905080600d60008773ffffffffffffffffffffffffffffffffffffffff1673ffffffffffffffffffffffffffffffffffffffff16815260200190815260200160002060008481526020019081526020016000208190555081600e600083815260200190815260200160002081905550505b600e600084815260200190815260200160002060009055600d60008573ffffffffffffffffffffffffffffffffffffffff1673ffffffffffffffffffffffffffffffffffffffff16815260200190815260200160002060008381526020019081526020016000206000905550505050565b60006001600f80549050612a289190614818565b90506000601060008481526020019081526020016000205490506000600f8381548110612a5857612a57613cfe565b5b9060005260206000200154905080600f8381548110612a7a57612a79613cfe565b5b90600052602060002001819055508160106000838152602001908152602001600020819055506010600085815260200190815260200160002060009055600f805480612ac957612ac861484c565b5b6001900381819060005260206000200160009055905550505050565b6000612af083611104565b905081600d60008573ffffffffffffffffffffffffffffffffffffffff1673ffffffffffffffffffffffffffffffffffffffff16815260200190815260200160002060008381526020019081526020016000208190555080600e600084815260200190815260200160002081905550505050565b6000808273ffffffffffffffffffffffffffffffffffffffff163b119050919050565b600073ffffffffffffffffffffffffffffffffffffffff168273ffffffffffffffffffffffffffffffffffffffff1603612bf6576040517f08c379a0000000000000000000000000000000000000000000000000000000008152600401612bed906148c7565b60405180910390fd5b612bff8161244c565b15612c3f576040517f08c379a0000000000000000000000000000000000000000000000000000000008152600401612c3690614933565b60405180910390fd5b612c4d60008383600161248d565b612c568161244c565b15612c96576040517f08c379a0000000000000000000000000000000000000000000000000000000008152600401612c8d90614933565b60405180910390fd5b6001600360008473ffffffffffffffffffffffffffffffffffffffff1673ffffffffffffffffffffffffffffffffffffffff16815260200190815260200160002060008282540192505081905550816002600083815260200190815260200160002060006101000a81548173ffffffffffffffffffffffffffffffffffffffff021916908373ffffffffffffffffffffffffffffffffffffffff160217905550808273ffffffffffffffffffffffffffffffffffffffff16600073ffffffffffffffffffffffffffffffffffffffff167fddf252ad1be2c89b69c2b068fc378daa952ba7f163c4a11628f55a4df523b3ef60405160405180910390a4612da06000838360016125a2565b5050565b600080600090507a184f03e93ff9f4daa797ed6e38ed64bf6a1f0100000000000000008310612e02577a184f03e93ff9f4daa797ed6e38ed64bf6a1f0100000000000000008381612df857612df76147e9565b5b0492506040810190505b6d04ee2d6d415b85acef81000000008310612e3f576d04ee2d6d415b85acef81000000008381612e3557612e346147e9565b5b0492506020810190505b662386f26fc100008310612e6e57662386f26fc100008381612e6457612e636147e9565b5b0492506010810190505b6305f5e1008310612e97576305f5e1008381612e8d57612e8c6147e9565b5b0492506008810190505b6127108310612ebc576127108381612eb257612eb16147e9565b5b0492506004810190505b60648310612edf5760648381612ed557612ed46147e9565b5b0492506002810190505b600a8310612eee576001810190505b80915050919050565b60405180608001604052806000815260200160008152602001600073ffffffffffffffffffffffffffffffffffffffff1681526020016000151581525090565b6000604051905090565b600080fd5b600080fd5b60007fffffffff0000000000000000000000000000000000000000000000000000000082169050919050565b612f8081612f4b565b8114612f8b57600080fd5b50565b600081359050612f9d81612f77565b92915050565b600060208284031215612fb957612fb8612f41565b5b6000612fc784828501612f8e565b91505092915050565b60008115159050919050565b612fe581612fd0565b82525050565b60006020820190506130006000830184612fdc565b92915050565b600081519050919050565b600082825260208201905092915050565b60005b83811015613040578082015181840152602081019050613025565b60008484015250505050565b6000601f19601f8301169050919050565b600061306882613006565b6130728185613011565b9350613082818560208601613022565b61308b8161304c565b840191505092915050565b600060208201905081810360008301526130b0818461305d565b905092915050565b6000819050919050565b6130cb816130b8565b81146130d657600080fd5b50565b6000813590506130e8816130c2565b92915050565b60006020828403121561310457613103612f41565b5b6000613112848285016130d9565b91505092915050565b600073ffffffffffffffffffffffffffffffffffffffff82169050919050565b60006131468261311b565b9050919050565b6131568161313b565b82525050565b6000602082019050613171600083018461314d565b92915050565b6131808161313b565b811461318b57600080fd5b50565b60008135905061319d81613177565b92915050565b600080604083850312156131ba576131b9612f41565b5b60006131c88582860161318e565b92505060206131d9858286016130d9565b9150509250929050565b6131ec816130b8565b82525050565b600060208201905061320760008301846131e3565b92915050565b6000806040838503121561322457613223612f41565b5b6000613232858286016130d9565b9250506020613243858286016130d9565b9150509250929050565b60008060006060848603121561326657613265612f41565b5b60006132748682870161318e565b93505060206132858682870161318e565b9250506040613296868287016130d9565b9150509250925092565b600081519050919050565b600082825260208201905092915050565b6000819050602082019050919050565b6132d5816130b8565b82525050565b6132e48161313b565b82525050565b6132f381612fd0565b82525050565b60808201600082015161330f60008501826132cc565b50602082015161332260208501826132cc565b50604082015161333560408501826132db565b50606082015161334860608501826132ea565b50505050565b600061335a83836132f9565b60808301905092915050565b6000602082019050919050565b600061337e826132a0565b61338881856132ab565b9350613393836132bc565b8060005b838110156133c45781516133ab888261334e565b97506133b683613366565b925050600181019050613397565b5085935050505092915050565b600060208201905081810360008301526133eb8184613373565b905092915050565b600080fd5b600080fd5b7f4e487b7100000000000000000000000000000000000000000000000000000000600052604160045260246000fd5b6134358261304c565b810181811067ffffffffffffffff82111715613454576134536133fd565b5b80604052505050565b6000613467612f37565b9050613473828261342c565b919050565b600067ffffffffffffffff821115613493576134926133fd565b5b61349c8261304c565b9050602081019050919050565b82818337600083830152505050565b60006134cb6134c684613478565b61345d565b9050828152602081018484840111156134e7576134e66133f8565b5b6134f28482856134a9565b509392505050565b600082601f83011261350f5761350e6133f3565b5b813561351f8482602086016134b8565b91505092915050565b60006020828403121561353e5761353d612f41565b5b600082013567ffffffffffffffff81111561355c5761355b612f46565b5b613568848285016134fa565b91505092915050565b60808201600082015161358760008501826132cc565b50602082015161359a60208501826132cc565b5060408201516135ad60408501826132db565b5060608201516135c060608501826132ea565b50505050565b60006080820190506135db6000830184613571565b92915050565b6000602082840312156135f7576135f6612f41565b5b60006136058482850161318e565b91505092915050565b61361781612fd0565b811461362257600080fd5b50565b6000813590506136348161360e565b92915050565b6000806040838503121561365157613650612f41565b5b600061365f8582860161318e565b925050602061367085828601613625565b9150509250929050565b600067ffffffffffffffff821115613695576136946133fd565b5b61369e8261304c565b9050602081019050919050565b60006136be6136b98461367a565b61345d565b9050828152602081018484840111156136da576136d96133f8565b5b6136e58482856134a9565b509392505050565b600082601f830112613702576137016133f3565b5b81356137128482602086016136ab565b91505092915050565b6000806000806080858703121561373557613734612f41565b5b60006137438782880161318e565b94505060206137548782880161318e565b9350506040613765878288016130d9565b925050606085013567ffffffffffffffff81111561378657613785612f46565b5b613792878288016136ed565b91505092959194509250565b600080604083850312156137b5576137b4612f41565b5b600083013567ffffffffffffffff8111156137d3576137d2612f46565b5b6137df858286016134fa565b92505060206137f0858286016130d9565b9150509250929050565b6000806040838503121561381157613810612f41565b5b600061381f8582860161318e565b92505060206138308582860161318e565b9150509250929050565b7f4e487b7100000000000000000000000000000000000000000000000000000000600052602260045260246000fd5b6000600282049050600182168061388157607f821691505b6020821081036138945761389361383a565b5b50919050565b7f4552433732313a20617070726f76616c20746f2063757272656e74206f776e6560008201527f7200000000000000000000000000000000000000000000000000000000000000602082015250565b60006138f6602183613011565b91506139018261389a565b604082019050919050565b60006020820190508181036000830152613925816138e9565b9050919050565b7f4552433732313a20617070726f76652063616c6c6572206973206e6f7420746f60008201527f6b656e206f776e6572206f7220617070726f76656420666f7220616c6c000000602082015250565b6000613988603d83613011565b91506139938261392c565b604082019050919050565b600060208201905081810360008301526139b78161397b565b9050919050565b7f596f7520617265206e6f74206f776e6572206f662074686973206e6674000000600082015250565b60006139f4601d83613011565b91506139ff826139be565b602082019050919050565b60006020820190508181036000830152613a23816139e7565b9050919050565b7f4974656d20697320616c7265616479206f6e2073616c65000000000000000000600082015250565b6000613a60601783613011565b9150613a6b82613a2a565b602082019050919050565b60006020820190508181036000830152613a8f81613a53565b9050919050565b7f5072696365206d75737420626520657175616c20746f206c697374696e67207060008201527f7269636500000000000000000000000000000000000000000000000000000000602082015250565b6000613af2602483613011565b9150613afd82613a96565b604082019050919050565b60006020820190508181036000830152613b2181613ae5565b9050919050565b7f4552433732313a2063616c6c6572206973206e6f7420746f6b656e206f776e6560008201527f72206f7220617070726f76656400000000000000000000000000000000000000602082015250565b6000613b84602d83613011565b9150613b8f82613b28565b604082019050919050565b60006020820190508181036000830152613bb381613b77565b9050919050565b7f596f7520616c7265616479206f776e2074686973204e46540000000000000000600082015250565b6000613bf0601883613011565b9150613bfb82613bba565b602082019050919050565b60006020820190508181036000830152613c1f81613be3565b9050919050565b7f506c65617365207375626d6974207468652061736b696e672070726963650000600082015250565b6000613c5c601e83613011565b9150613c6782613c26565b602082019050919050565b60006020820190508181036000830152613c8b81613c4f565b9050919050565b7f496e646578206f7574206f6620626f756e647300000000000000000000000000600082015250565b6000613cc8601383613011565b9150613cd382613c92565b602082019050919050565b60006020820190508181036000830152613cf781613cbb565b9050919050565b7f4e487b7100000000000000000000000000000000000000000000000000000000600052603260045260246000fd5b7f4e487b7100000000000000000000000000000000000000000000000000000000600052601160045260246000fd5b6000613d67826130b8565b9150613d72836130b8565b9250828201905080821115613d8a57613d89613d2d565b5b92915050565b6000613d9b826130b8565b91507fffffffffffffffffffffffffffffffffffffffffffffffffffffffffffffffff8203613dcd57613dcc613d2d565b5b600182019050919050565b600081905092915050565b6000613dee82613006565b613df88185613dd8565b9350613e08818560208601613022565b80840191505092915050565b6000613e208284613de3565b915081905092915050565b7f4552433732313a20696e76616c696420746f6b656e2049440000000000000000600082015250565b6000613e61601883613011565b9150613e6c82613e2b565b602082019050919050565b60006020820190508181036000830152613e9081613e54565b9050919050565b7f4552433732313a2061646472657373207a65726f206973206e6f74206120766160008201527f6c6964206f776e65720000000000000000000000000000000000000000000000602082015250565b6000613ef3602983613011565b9150613efe82613e97565b604082019050919050565b60006020820190508181036000830152613f2281613ee6565b9050919050565b7f5072696365206d757374206265206174206c6561737420312077656900000000600082015250565b6000613f5f601c83613011565b9150613f6a82613f29565b602082019050919050565b60006020820190508181036000830152613f8e81613f52565b9050919050565b7f546f6b656e2055524920616c7265616479206578697374730000000000000000600082015250565b6000613fcb601883613011565b9150613fd682613f95565b602082019050919050565b60006020820190508181036000830152613ffa81613fbe565b9050919050565b600061400d8285613de3565b91506140198284613de3565b91508190509392505050565b7f4f776e61626c653a206e6577206f776e657220697320746865207a65726f206160008201527f6464726573730000000000000000000000000000000000000000000000000000602082015250565b6000614081602683613011565b915061408c82614025565b604082019050919050565b600060208201905081810360008301526140b081614074565b9050919050565b7f4552433732313a207472616e736665722066726f6d20696e636f72726563742060008201527f6f776e6572000000000000000000000000000000000000000000000000000000602082015250565b6000614113602583613011565b915061411e826140b7565b604082019050919050565b6000602082019050818103600083015261414281614106565b9050919050565b7f4552433732313a207472616e7366657220746f20746865207a65726f2061646460008201527f7265737300000000000000000000000000000000000000000000000000000000602082015250565b60006141a5602483613011565b91506141b082614149565b604082019050919050565b600060208201905081810360008301526141d481614198565b9050919050565b7f436f756e7465723a2064656372656d656e74206f766572666c6f770000000000600082015250565b6000614211601b83613011565b915061421c826141db565b602082019050919050565b6000602082019050818103600083015261424081614204565b9050919050565b7f4f776e61626c653a2063616c6c6572206973206e6f7420746865206f776e6572600082015250565b600061427d602083613011565b915061428882614247565b602082019050919050565b600060208201905081810360008301526142ac81614270565b9050919050565b7f4552433732313a20617070726f766520746f2063616c6c657200000000000000600082015250565b60006142e9601983613011565b91506142f4826142b3565b602082019050919050565b60006020820190508181036000830152614318816142dc565b9050919050565b7f4552433732313a207472616e7366657220746f206e6f6e20455243373231526560008201527f63656976657220696d706c656d656e7465720000000000000000000000000000602082015250565b600061437b603283613011565b91506143868261431f565b604082019050919050565b600060208201905081810360008301526143aa8161436e565b9050919050565b7f45524337323155524953746f726167653a2055524920736574206f66206e6f6e60008201527f6578697374656e7420746f6b656e000000000000000000000000000000000000602082015250565b600061440d602e83613011565b9150614418826143b1565b604082019050919050565b6000602082019050818103600083015261443c81614400565b9050919050565b60008190508160005260206000209050919050565b60006020601f8301049050919050565b600082821b905092915050565b6000600883026144a57fffffffffffffffffffffffffffffffffffffffffffffffffffffffffffffffff82614468565b6144af8683614468565b95508019841693508086168417925050509392505050565b6000819050919050565b60006144ec6144e76144e2846130b8565b6144c7565b6130b8565b9050919050565b6000819050919050565b614506836144d1565b61451a614512826144f3565b848454614475565b825550505050565b600090565b61452f614522565b61453a8184846144fd565b505050565b5b8181101561455e57614553600082614527565b600181019050614540565b5050565b601f8211156145a35761457481614443565b61457d84614458565b8101602085101561458c578190505b6145a061459885614458565b83018261453f565b50505b505050565b600082821c905092915050565b60006145c6600019846008026145a8565b1980831691505092915050565b60006145df83836145b5565b9150826002028217905092915050565b6145f882613006565b67ffffffffffffffff811115614611576146106133fd565b5b61461b8254613869565b614626828285614562565b600060209050601f8311600181146146595760008415614647578287015190505b61465185826145d3565b8655506146b9565b601f19841661466786614443565b60005b8281101561468f5784890151825560018201915060208501945060208101905061466a565b868310156146ac57848901516146a8601f8916826145b5565b8355505b6001600288020188555050505b505050505050565b60006080820190506146d660008301876131e3565b6146e360208301866131e3565b6146f0604083018561314d565b6146fd6060830184612fdc565b95945050505050565b600081519050919050565b600082825260208201905092915050565b600061472d82614706565b6147378185614711565b9350614747818560208601613022565b6147508161304c565b840191505092915050565b6000608082019050614770600083018761314d565b61477d602083018661314d565b61478a60408301856131e3565b818103606083015261479c8184614722565b905095945050505050565b6000815190506147b681612f77565b92915050565b6000602082840312156147d2576147d1612f41565b5b60006147e0848285016147a7565b91505092915050565b7f4e487b7100000000000000000000000000000000000000000000000000000000600052601260045260246000fd5b6000614823826130b8565b915061482e836130b8565b925082820390508181111561484657614845613d2d565b5b92915050565b7f4e487b7100000000000000000000000000000000000000000000000000000000600052603160045260246000fd5b7f4552433732313a206d696e7420746f20746865207a65726f2061646472657373600082015250565b60006148b1602083613011565b91506148bc8261487b565b602082019050919050565b600060208201905081810360008301526148e0816148a4565b9050919050565b7f4552433732313a20746f6b656e20616c7265616479206d696e74656400000000600082015250565b600061491d601c83613011565b9150614928826148e7565b602082019050919050565b6000602082019050818103600083015261494c81614910565b905091905056fea26469706673582212208df68b4c711757c059053ede02c4ce05992cf004b08c5ae0b51c68e6f5a328b564736f6c63430008130033",
  "linkReferences": {},
  "deployedLinkReferences": {}
}